:020000040800F2
:10D00000FFFF00204100010895000108950001087C
:10D010009500010895000108950001080000000036
:10D020000000000000000000000000009500010862
:10D030009500010800000000950001089500010816
:10D040009500010895000108950001089500010868
:10D050009500010895000108950001089500010858
:10D060009500010895000108950001089500010848
:10D070009500010895000108950001089500010838
:10D080009500010895000108950001089500010828
:10D090009500010895000108950001089500010818
:10D0A0009500010895000108950001089500010808
:10D0B0009500010800000000000000009500010834
:10D0C00095000108950001089500010895000108E8
:10D0D00095000108950001080DF70008950001086A
:10D0E0009500010895000108000000000000000004
:10D0F0000000000000000000000000000000000030
:10D1000000000000950001080000000095000108E3
:10D1100000000000000000009500010895000108D3
:10D120009500010895000108950001089500010887
:10D130009500010800000000000000000000000051
:10D140009500010895000108950001080000000005
:10D150009500010895000108950001089500010857
:10D1600095000108950001089500010800000000E5
:10D170009500010895000108000000000000000073
:10D1800095000108950001089500010800000000C5
:10D8000010B5054C237833B9044B13B10448AFF37A
:10D8100000800123237010BD404000200000000064
:10D820000C01010808B5034B1BB103490348AFF3D2
:10D83000008008BD00000000444000200C010108E9
:10D84000034613F8012B002AFBD1181A0138704740
:10D8500081F0004102E000BF83F0004330B54FEAA1
:10D8600041044FEA430594EA050F08BF90EA020F0E
:10D870001FBF54EA000C55EA020C7FEA645C7FEAA1
:10D88000655C00F0E2804FEA5454D4EB5555B8BFC4
:10D890006D420CDD2C4480EA020281EA030382EA35
:10D8A000000083EA010180EA020281EA0303362DC7
:10D8B00088BF30BD11F0004F4FEA01314FF4801C9A
:10D8C0004CEA113102D0404261EB410113F0004FAC
:10D8D0004FEA03334CEA133302D0524263EB430363
:10D8E00094EA050F00F0A780A4F10104D5F1200E01
:10D8F0000DDB02FA0EFC22FA05F2801841F100015C
:10D9000003FA0EF2801843FA05F359410EE0A5F12F
:10D9100020050EF1200E012A03FA0EFC28BF4CF060
:10D92000020C43FA05F3C01851EBE37101F0004516
:10D9300007D54FF0000EDCF1000C7EEB00006EEB23
:10D940000101B1F5801F1BD3B1F5001F0CD34908AD
:10D950005FEA30004FEA3C0C04F101044FEA445204
:10D9600012F5800F80F09A80BCF1004F08BF5FEA8B
:10D97000500C50F1000041EB045141EA050130BD6B
:10D980005FEA4C0C404141EB010111F4801FA4F10E
:10D990000104E9D191F0000F04BF01460020B1FA63
:10D9A00081F308BF2033A3F10B03B3F120020CDA9B
:10D9B0000C3208DD02F1140CC2F10C0201FA0CF079
:10D9C00021FA02F10CE002F11402D8BFC2F1200CDE
:10D9D00001FA02F120FA0CFCDCBF41EA0C01904094
:10D9E000E41AA2BF01EB0451294330BD6FEA0404DD
:10D9F0001F3C1CDA0C340EDC04F11404C4F12002C8
:10DA000020FA04F001FA02F340EA030021FA04F3D9
:10DA100045EA030130BDC4F10C04C4F1200220FA30
:10DA200002F001FA04F340EA0300294630BD21FA6E
:10DA300004F0294630BD94F0000F83F4801306BF34
:10DA400081F480110134013D4EE77FEA645C18BF28
:10DA50007FEA655C29D094EA050F08BF90EA020FBF
:10DA600005D054EA000C04BF1946104630BD91EAB7
:10DA7000030F1EBF0021002030BD5FEA545C05D1BA
:10DA80004000494128BF41F0004130BD14F58004F9
:10DA90003CBF01F5801130BD01F0004545F0FE416D
:10DAA00041F470014FF0000030BD7FEA645C1ABFA2
:10DAB000194610467FEA655C1CBF0B46024650EAD9
:10DAC000013406BF52EA033591EA030F41F4002105
:10DAD00030BD00BF90F0000F04BF0021704730B58B
:10DAE0004FF4806404F132044FF000054FF0000160
:10DAF00050E700BF90F0000F04BF0021704730B521
:10DB00004FF4806404F1320410F0004548BF4042F5
:10DB10004FF000013EE700BF42004FEAE2014FEA4A
:10DB200031014FEA02701FBF12F07F4393F07F4F25
:10DB300081F06051704732F07F4208BF704793F028
:10DB40007F4F04BF41F40021704730B54FF460743B
:10DB500001F0004521F000411CE700BF50EA01023E
:10DB600008BF704730B54FF000050AE050EA0102E7
:10DB700008BF704730B511F0004502D5404261EB57
:10DB800041014FF4806404F132045FEA915C3FF498
:10DB9000D8AE4FF003025FEADC0C18BF03325FEA35
:10DBA000DC0C18BF033202EBDC02C2F1200300FAE6
:10DBB00003FC20FA02F001FA03FE40EA0E0021FA0B
:10DBC00002F11444BDE600BF70B54FF0FF0C4CF4F9
:10DBD000E06C1CEA11541DBF1CEA135594EA0C0FAB
:10DBE00095EA0C0F00F0DEF82C4481EA030621EAE6
:10DBF0004C5123EA4C5350EA013518BF52EA033521
:10DC000041F4801143F4801338D0A0FB02CE4FF0D2
:10DC10000005E1FB02E506F00042E0FB03E54FF002
:10DC20000006E1FB03569CF0000F18BF4EF0010EFA
:10DC3000A4F1FF04B6F5007F64F5407404D25FEAF6
:10DC40004E0E6D4146EB060642EAC62141EA5551A9
:10DC50004FEAC52040EA5E504FEACE2EB4F1FD0CEB
:10DC600088BFBCF5E06F1ED8BEF1004F08BF5FEA69
:10DC7000500E50F1000041EB045170BD06F000461B
:10DC800046EA010140EA020081EA0301B4EB5C04C8
:10DC9000C2BFD4EB0C0541EA045170BD41F48011C0
:10DCA0004FF0000E013C00F3AB8014F1360FDEBFE5
:10DCB000002001F0004170BDC4F10004203C35DAC1
:10DCC0000C341BDC04F11404C4F1200500FA05F344
:10DCD00020FA04F001FA05F240EA020001F00042E5
:10DCE00021F0004110EBD37021FA04F642EB06015B
:10DCF0005EEA430E08BF20EAD37070BDC4F10C0485
:10DD0000C4F1200500FA04F320FA05F001FA04F248
:10DD100040EA020001F0004110EBD37041F1000134
:10DD20005EEA430E08BF20EAD37070BDC4F120053F
:10DD300000FA05F24EEA020E20FA04F301FA05F2A7
:10DD400043EA020321FA04F001F0004121FA04F24F
:10DD500020EA020000EBD3705EEA430E08BF20EA1F
:10DD6000D37070BD94F0000F0FD101F00046400059
:10DD700041EB010111F4801F08BF013CF7D041EADB
:10DD8000060195F0000F18BF704703F000465200DF
:10DD900043EB030313F4801F08BF013DF7D043EAB0
:10DDA0000603704794EA0C0F0CEA135518BF95EA66
:10DDB0000C0F0CD050EA410618BF52EA4306D1D1ED
:10DDC00081EA030101F000414FF0000070BD50EA0C
:10DDD000410606BF1046194652EA430619D094EA96
:10DDE0000C0F02D150EA013613D195EA0C0F05D180
:10DDF00052EA03361CBF104619460AD181EA0301D4
:10DE000001F0004141F0FE4141F470014FF000008B
:10DE100070BD41F0FE4141F4780170BD70B54FF026
:10DE2000FF0C4CF4E06C1CEA11541DBF1CEA1355A6
:10DE300094EA0C0F95EA0C0F00F0A7F8A4EB050488
:10DE400081EA030E52EA03354FEA013100F088807F
:10DE50004FEA03334FF0805545EA131343EA126348
:10DE60004FEA022245EA111545EA10654FEA0026FD
:10DE70000EF000419D4208BF964244F1FD0404F5B6
:10DE8000407402D25B084FEA3202B61A65EB030512
:10DE90005B084FEA32024FF480104FF4002CB6EBCF
:10DEA000020E75EB030E22BFB61A754640EA0C004F
:10DEB0005B084FEA3202B6EB020E75EB030E22BF8F
:10DEC000B61A754640EA5C005B084FEA3202B6EBD0
:10DED000020E75EB030E22BFB61A754640EA9C008F
:10DEE0005B084FEA3202B6EB020E75EB030E22BF5F
:10DEF000B61A754640EADC0055EA060E18D04FEA1D
:10DF0000051545EA16754FEA06164FEAC30343EABC
:10DF100052734FEAC2025FEA1C1CC0D111F4801F89
:10DF20000BD141EA00014FF000004FF0004CB6E782
:10DF300011F4801F04BF01430020B4F1FD0C88BF21
:10DF4000BCF5E06F3FF6AFAEB5EB030C04BFB6EB2C
:10DF5000020C5FEA500C50F1000041EB045170BD1F
:10DF60000EF0004E4EEA113114EB5C04C2BFD4EB4C
:10DF70000C0541EA045170BD41F480114FF0000ED0
:10DF8000013C90E645EA060E8DE60CEA135594EA4C
:10DF90000C0F08BF95EA0C0F3FF43BAF94EA0C0F4F
:10DFA0000AD150EA01347FF434AF95EA0C0F7FF4C4
:10DFB00025AF104619462CE795EA0C0F06D152EA18
:10DFC00003353FF4FDAE1046194622E750EA4106FC
:10DFD00018BF52EA43067FF4C5AE50EA41047FF40D
:10DFE0000DAF52EA43057FF4EBAE12E74FF0FF3C72
:10DFF00006E000BF4FF0010C02E000BF4FF0010C43
:10E000004DF804CD4FEA410C7FEA6C5C4FEA430CBB
:10E0100018BF7FEA6C5C1BD001B050EA410C0CBF0A
:10E0200052EA430C91EA030F02BF90EA020F00206C
:10E03000704710F1000F91EA030F58BF994208BFD3
:10E0400090422CBFD8176FEAE37040F00100704790
:10E050004FEA410C7FEA6C5C02D150EA013C07D1E7
:10E060004FEA430C7FEA6C5CD6D152EA033CD3D032
:10E070005DF8040B704700BF8446104662468C462C
:10E080001946634600E000BF01B5FFF7B7FF00285F
:10E0900048BF10F1000F01BD4DF808EDFFF7F4FF88
:10E0A0000CBF012000205DF808FB00BF4DF808ED13
:10E0B000FFF7EAFF34BF012000205DF808FB00BF36
:10E0C0004DF808EDFFF7E0FF94BF012000205DF858
:10E0D00008FB00BF4DF808EDFFF7CEFF94BF01200D
:10E0E00000205DF808FB00BF4DF808EDFFF7C4FF06
:10E0F00034BF012000205DF808FB00BF4FEA410259
:10E1000012F5001215D211D56FF47873B3EB625289
:10E1100012D94FEAC12343F0004343EA505311F0B0
:10E12000004F23FA02F018BF404270474FF0000042
:10E13000704750EA013005D111F0004008BF6FF080
:10E14000004070474FF00000704700BF4A0011D2F6
:10E1500012F5001211D20DD56FF47873B3EB625241
:10E160000ED44FEAC12343F0004343EA505323FA4D
:10E1700002F070474FF00000704750EA013002D1C2
:10E180004FF0FF3070474FF0000070474FEA4102F8
:10E19000B2F1E04324BFB3F5001CDCF1FE5C0DD905
:10E1A00001F0004C4FEAC0024CEA5070B2F1004F4F
:10E1B00040EB830008BF20F00100704711F0804F52
:10E1C00021D113F13872BCBF01F00040704741F417
:10E1D00080114FEA5252C2F11802C2F1200C10FA1B
:10E1E0000CF320FA02F018BF40F001004FEAC123FF
:10E1F0004FEAD32303FA0CFC40EA0C0023FA02F3A3
:10E200004FEA4303CCE77FEA625307D150EA013378
:10E210001EBF4FF0FE4040F44000704701F0004048
:10E2200040F0FE4040F40000704700BF53B94AB9C7
:10E23000002908BF00281CBF4FF0FF314FF0FF300E
:10E2400000F094B9ADF1080C6DE904CE00F028F8A7
:10E25000DDF804E0DDE9022304B07047D0B5002208
:10E260000D4B06460F46FFF7AFFCFFF76FFF044666
:10E27000FFF730FC0022094BFFF7A6FC02460B46D5
:10E2800030463946FFF7E8FAFFF760FF00222346E1
:10E2900010431946D0BD00BF0000F03D0000F04122
:10E2A0002DE9F047089E04468846002B4BD18A4250
:10E2B000154667D9B2FA82F24AB1C2F1200701FAD3
:10E2C00002F320FA07F7954047EA030894404FEA23
:10E2D000154E230CB8FBFEF71FFA85FC0EFB1788C2
:10E2E00043EA084307FB0CF1994209D9EB1807F1FF
:10E2F000FF3080F01B81994240F21881023F2B448D
:10E300005B1AA4B2B3FBFEF00EFB103344EA0344E5
:10E3100000FB0CFCA44509D92C1900F1FF3380F057
:10E320000781A44540F2048102382C4440EA0740AA
:10E33000A4EB0C0400271EB1D4400023C6E900431F
:10E340003946BDE8F0878B4209D9002E00F0EB80FA
:10E350000027C6E9000138463946BDE8F087B3FA20
:10E3600083F7002F47D18B4202D3824200F2FA801A
:10E37000841A61EB030301209846002EE0D0C6E921
:10E380000048DDE702B9FFDEB2FA82F2002A40F06F
:10E390008F80491B4FEA154E1FFA85F80127B1FB04
:10E3A000FEFC230C0EFB1C1143EA014308FB0CF19D
:10E3B000994207D9EB180CF1FF3002D2994200F2D2
:10E3C000CD808446591AA3B2B1FBFEF00EFB1014A7
:10E3D00043EA044408FB00F8A04507D92C1900F1D2
:10E3E000FF3302D2A04500F2B6801846A4EB080421
:10E3F00040EA0C409FE7C7F1200CBB4022FA0CFE1C
:10E400004EEA030E01FA07F420FA0CF521FA0CF398
:10E410004FEA1E482543B3FBF8F92C0C08FB1933CF
:10E420001FFA8EFA44EA034309FB0AF49C4202FAFB
:10E4300007F200FA07F10BD91EEB030309F1FF30D5
:10E4400080F087809C4240F28480A9F102097344E5
:10E450001B1BADB2B3FBF8F008FB103345EA0344D5
:10E4600000FB0AFAA24508D91EEB040400F1FF33B1
:10E470006BD2A24569D90238744440EA0940A0FB36
:10E480000289A4EB0A044C45C2464B4654D351D0F2
:10E49000002E69D0B1EB0A0564EB030404FA0CFC0E
:10E4A000FD40FC404CEA0505C6E90054002747E75B
:10E4B000C2F1200320FA03F7954001FA02F021FA95
:10E4C00003F34FEA154E3843010CB3FBFEF71FFA76
:10E4D00085F80EFB173341EA034107FB08F38B4233
:10E4E00004FA02F407D9691807F1FF3C2FD28B42D6
:10E4F0002DD9023F2944CB1A81B2B3FBFEF00EFBAB
:10E50000103341EA034100FB08F38B4207D9691835
:10E5100000F1FF3C17D28B4215D902382944C91AA1
:10E5200040EA07473BE73746304609E70746E7E654
:10E530001846FBE64145ABD2B8EB020A69EB0E0286
:10E5400001381346A4E76046E9E7184695E76746B1
:10E55000D1E781467CE702382C4447E7ACF1020C56
:10E560002B442FE7384608E73746E9E6704700BFF7
:10E5700082B0234B9B6D13F0805F15D0214B1B683D
:10E5800003F4C063B3F5007F21D000211E4A136855
:10E5900023F007030B431360136803F007038B4258
:10E5A0001FD0002002B07047154A936D43F080538E
:10E5B0009365936D03F080530193019B114B1B688E
:10E5C00003F4C063916D21F080519165DAE78028F2
:10E5D00003D9A02803D90221D8E70021D6E70121D9
:10E5E000D4E7A2F58052136843F008031360136860
:10E5F00023F0F00343F0B00313600120D2E700BF23
:10E6000000100240007000400020024010B5114C84
:10E61000D4F8883043F47003C4F888300E4B1A687D
:10E6200042F001021A60002199601A6822F0A85293
:10E6300022F410221A604FF48052DA601A6822F431
:10E6400080221A609961B020FFF792FF4FF00063BB
:10E65000A36010BD00ED00E00010024000000000CB
:10E660002DE9F0472DED028B57EC106B04460D465B
:10E670000022002310EE100A3946FFF717FDA0B95B
:10E680004FF0000830463946FFF738FD8146FFF766
:10E6900031FA02460B4630463946FFF7DDF8FFF700
:10E6A00075FD08EE100A29460BE032463B46002075
:10E6B0000021FFF7D1F806460F464FF00108E1E7C9
:10E6C0000146374A82FB09324FEAE973C3EBA203E2
:10E6D0001A4603EB83035800A9EB0003481C3033B0
:10E6E0000B709146002AEBD1B8F1000F02D1411E08
:10E6F0002A4611E0881C2D234B70F8E713780E781A
:10E700003344DBB213700E789B1BDBB201F8013986
:10E710001678F31A02F8013B8A42EFD300F10108A0
:10E720002E23037000E0D046F2EE047A28EE278A0A
:10E73000FDEEC87A08F1010A17EE903A303388F8F6
:10E74000003009F10109A1451AD0F8EEE77A38EE58
:10E75000678A18EE100AFFF7DFF906460F460CA38A
:10E76000D3E90023FFF7C0FC0028DCD00AA3D3E9DB
:10E77000002330463946FFF799FC08B9D046D3E765
:10E78000002388F801302846BDEC028BBDE8F087F5
:10E790008DEDB5A0F7C6B0BE8DEDB5A0F7C6B03E05
:10E7A00067666666002201E000BF01324FF49653AF
:10E7B00003FB00F39342F7D8704700002DE9F043C4
:10E7C000ADF2144D924801F027FC72B601221146B9
:10E7D0004FF4847000F06CFA0122114640F20910E7
:10E7E00000F066FA0122114640F2071000F060FACC
:10E7F0004FF41651022000F003FC022000F0F2FC5E
:10E8000062B600F00FFF002400944FF49F73EE22D5
:10E810000221084600F086FE7E4B009348F230430A
:10E8200022461421232000F00BFE7B4B009348F27C
:10E83000304322465A21062000F002FE01250095B1
:10E840007823EC226E21042000F06CFE734B0093C1
:10E8500048F2304322467D21062000F0F1FD00956C
:10E860009B23EC229121042000F05CFE6C4B009372
:10E8700048F230432246A021062000F0E1FD69481D
:10E8800001F0CAFB0095BE23EC22B421042000F065
:10E8900049FE654801F0C0FB644801F0BDFBACE0F7
:10E8A000C013634D05EBC405B42303FB00F0FFF771
:10E8B00021F9C5E900010134022C08DC5D4B33F974
:10E8C00014000028ECDA00F5FF407F30E8E7594BF0
:10E8D000B3F90230282B00F39680564CB4F90000AF
:10E8E000FFF708F900224FF07C53FFF76DF9002283
:10E8F000514BFFF769F941EC100B04A90320FFF716
:10E90000AFFE009048F2304300225A21412000F02F
:10E9100097FDB4F90200FFF7EDF800224FF07C53A9
:10E92000FFF752F90022444BFFF74EF941EC100B70
:10E9300004A90320FFF794FE009048F23043002220
:10E940007D21412000F07CFDB4F90400FFF7D2F8EE
:10E9500000224FF07C53FFF737F90022364BFFF7C8
:10E9600033F941EC100B04A90320FFF779FE009066
:10E9700048F230430022A021412000F061FDB4F9AB
:10E980000000FFF7B7F800224FF07C53FFF71CF9A7
:10E9900080468946B4F90200FFF7ACF800224FF038
:10E9A0007C53FFF711F906460F46B4F90400FFF750
:10E9B000A1F800224FF07C53FFF706F904460D46FC
:10E9C00000221D4B40464946FFF7FEF88046894627
:10E9D0000022194B20462946FFF7F6F8CDE902013F
:10E9E0000022154B30463946FFF7EEF8CDE900011D
:10E9F00042464B46114801F00FFB41F28830FFF7C9
:10EA0000D1FE002458E740F2091000F089F964E7CC
:10EA10002801010838010108400101084C010108E2
:10EA20005801010864010108780101088801010802
:10EA300070400020AC400020008066409801010832
:10EA4000144B1B6913F4803FFAD1124B1A6922F060
:10EA50007F421A615A6922F001025A615A6942F0F2
:10EA600002025A615A6922F47E725A615A6942EA74
:10EA7000C00058615A6942F480325A61054B1B69E3
:10EA800013F4803FFAD1034A536923F00203536120
:10EA9000002070470020024008B501F5803102EBEC
:10EAA000C1211A4601F01EFB08BD08B501F01AFB92
:10EAB00008BDB0B500AF0C46CB1DDB086A46A2EB23
:10EAC000C3039D466D4600F580312246C902684663
:10EAD00001F008FB0023A34205D2EA5CFF2A05D11E
:10EAE00001339BB2F7E70120BD46B0BD0020FBE734
:10EAF00010B40C4B1B6813F4806F04D0094C2368CE
:10EB000023F480632360074B5C6944F001045C617B
:10EB1000016042605A6922F001025A6100205DF8EA
:10EB2000044B704700200240F8B517461D46184BAD
:10EB30001B6913F4803FFAD100F5803001EBC02649
:10EB400000241BE0285D2B19597840EA01209978B0
:10EB500040EA0140D9781A7993F805C042EA0C22BC
:10EB600093F806C042EA0C42DB7942EA036240EACB
:10EB70000161A019FFF7BCFF0834A4B2BC42E1D385
:10EB8000034B1B6913F4803FFAD10020F8BD00BF8E
:10EB9000002002402DE9F041ADF5006D0746144616
:10EBA0001D46224A136923F07F4313616318B3F5AE
:10EBB000006F09DC0E464FF40063002201466846F0
:10EBC000FFF76AFF00231BE08846C1F500622B4671
:10EBD00092B2FFF7DFFF08EB040292B2C8F50063C0
:10EBE000A2F50062781C2B4492B2002180B2FFF79C
:10EBF000D1FF11E09A19E95C0DF8021001339BB2C4
:10EC0000A342F7D33846FFF71BFF6B464FF4006271
:10EC100000213846FFF788FF044B1B6913F4803F3F
:10EC2000FAD100200DF5006DBDE8F0810020024012
:10EC300010B50346C0F3CF209BB2C402A4B21C1B84
:10EC400013460A46A1B2FFF7A5FF034B1B6913F455
:10EC5000803FFAD1002010BD00200240030A0B7053
:10EC60001070704710B582B00C460DF106020DF120
:10EC70000701FFF7F3FF9DF80730072B0BD00B4A76
:10EC800052F82320012C0BD09DF8061001238B4055
:10EC9000936202B010BD023B044A52F82320F1E710
:10ECA0009DF8061001238B409361F2E70440002099
:10ECB000F0B583B005460C4616460DF106020DF17F
:10ECC0000701FFF7CBFF9DF80710072915D0124B5E
:10ECD00053F82100114FFB6C01228A401343FB645F
:10ECE00001689DF806305B0003229A4021EA020287
:10ECF000012C07D0026003B0F0BD8B1E064A52F80B
:10ED00002300E7E7012101FA03F31A4302603146C9
:10ED10002846FFF7A7FFEEE704400020001002405E
:10ED200000B583B00DF106020DF10701FFF796FF64
:10ED30009DF80730072B0DD00A4A52F8232051695D
:10ED40009DF8060001238340194208D1936103B066
:10ED50005DF804FB023B034A52F82320EFE793627D
:10ED6000F5E700BF04400020024B4AF6AA221A60D1
:10ED7000704700BF0030004030B4022822D810B3E2
:10ED800001284FD14A4CA56D45F48045A565E56C39
:10ED900045F00205E564474C256825F07F45256070
:10EDA000256845F02A452560656AADB26562656AE9
:10EDB00045F0AA4545F4AA056562A56845F07F457A
:10EDC000A5602FE000203A4C256E45F4805525665D
:10EDD000E56C45F00105E5644FF09044256825F0A9
:10EDE000404525F47C452560256845F0004545F4FF
:10EDF00028452560256AC5F313052562256A45F077
:10EE0000AA4545F4A0052562656A25F0704565624E
:10EE1000656A45F0A0456562A56845F0404545F442
:10EE20007C45A5600446244D55F82050286820F004
:10EE300040002860012916D04FF40071012B15D035
:10EE400021F002039DF80810012912D023F00101DE
:10EE50001A4B1B681A48A0FB03039B09B3FBF2F291
:10EE600092B200230BE04FF44171E7E741F0020357
:10EE7000E8E743F00101EBE70133DBB25208032A74
:10EE8000FAD841EAC3030C4A52F8240001680B4344
:10EE9000036052F824104B6843F4B8534B6052F8A7
:10EEA0002420136843F04003136030BC704700BF58
:10EEB00000100240000400481C40002000400020D8
:10EEC000D34D621010B483B000230193022836D8CA
:10EED00004461D4B53F820301A6812F0400F03D13E
:10EEE0001A6842F040021A60174B53F824309A68AF
:10EEF00012F0020F09D1019B01330193019A4FF6E1
:10EF0000FE739A42F0D900201AE01973002301938E
:10EF10000D4B53F824309A6812F0010F09D1019B70
:10EF200001330193019A4FF6FE739A42F0D9002003
:10EF300006E0DA6801929B680193012000E000205E
:10EF400003B05DF8044B70471C40002000B5ADF6DF
:10EF5000040D18217F20FFF7ACFD00282DD14FF4C0
:10EF6000006219496846FFF7A0FD379A174B1B68E6
:10EF70009A4214D01A20FFF763FD144B1B68379395
:10EF8000134B1B680B93134B1B680E93124B1B68A0
:10EF90000F936A464FF400610B48FFF749FE0F4B91
:10EFA000094A9A600E4BA2F560521A600D4801F0B2
:10EFB00033F80DF6040D5DF804FB0B4A18210B48DD
:10EFC000FFF736FECBE700BF00D00008DC000008EA
:10EFD0002C000008380000083C00000800ED00E0AC
:10EFE000E0480020E4010108C801010800F8030816
:10EFF0000138C0B2022801D80120704700207047B4
:10F0000038B504460D46FFF7F3FF00283CD0022C2C
:10F0100057D0032C71D0012C37D0601E474B53F8CA
:10F0200020100A6822F001020A6053F820100A68D2
:10F0300022F00C020A6053F820301A6812F4004FD4
:10F0400076D03F4A1168B1FBF5F189B2490089B227
:10F05000D9603A4B53F820200021D161516821F446
:10F060009041516053F820108A6822F02A028A6089
:10F0700053F820100A6842F00C020A6053F820206E
:10F08000136843F00103136038BD2E4B1A6E42F42F
:10F0900080421A66DA6C42F00102DA644FF0904363
:10F0A0001A6822F470121A601A6842F420121A6068
:10F0B0005A6A22F47F625A625A6A42F4EE625A62D3
:10F0C000ABE7204B9A6D42F400329A65DA6C42F05D
:10F0D0000102DA644FF090431A6822F0F0021A60DD
:10F0E0001A6842F0A0021A601A6A22F47F421A6279
:10F0F0001A6A42F4EE421A628FE7124B9A6D42F49A
:10F1000080229A65DA6C42F00402DA640E4B1A68C7
:10F1100022F470021A601A6842F420021A605A6AD5
:10F1200022F47F425A625A6A42F4EE425A6274E70B
:10F13000034A1168B1FBF5F189B289E72840002044
:10F1400000400020001002400008004838B5044686
:10F150000D46FFF74DFF0346A8B100224FF6BA3324
:10F160009A420BD8631E0A4951F82330D96911F02D
:10F17000800F01D10132F1E7ADB21D854FF6BA33F0
:10F180009A4202D80123184638BD0023FBE700BF8E
:10F190002840002070B504460D46FFF729FF0646BB
:10F1A00070B100224FF6BA339A4211D8631E0C494F
:10F1B00051F82330D96911F0200F05D10132F1E760
:10F1C00000232B70304670BD9E8CF6B201232B704D
:10F1D0004FF6BA339A42F5D900232B70FF26F1E798
:10F1E0002840002010B50446FFF702FF98B1601ECA
:10F1F000094B53F82020136843F020031360074B9A
:10F200001B56002B07DB03F01F015B0901228A401C
:10F21000034941F8232010BD28400020344000203D
:10F2200000E100E010B50446FFF7E2FE034670B1CE
:10F23000013C094B53F82430DA6912F0200F05D055
:10F240001B6813F0200F04D1002300E000231846B0
:10F2500010BD0123FBE700BF2840002010B5044685
:10F26000FFF782FD012140F20510FFF7FBFC0021B2
:10F270004FF48370FFF7F6FC21460120FFF722FED2
:10F2800001214FF48370FFF7EDFC10BD10B504466B
:10F29000FFF76AFD012140F20510FFF7E3FC0021B2
:10F2A0004FF48370FFF7DEFC210A0120FFF70AFE0E
:10F2B000E1B20120FFF706FE01214FF48370FFF752
:10F2C000D1FC10BD10B50446FFF74EFD002140F201
:10F2D0000510FFF7C7FC00214FF48370FFF7C2FC55
:10F2E00021460120FFF7EEFD01214FF48370FFF767
:10F2F000B9FC10BD10B50C46FFF7E4FF2046FFF740
:10F30000C5FF10BDF8B507460D4616461C462A2017
:10F31000FFF7D8FF380AFFF7A1FFF8B2FFF79EFF0B
:10F32000300AFFF79BFFF0B2FFF798FF2B20FFF7A3
:10F33000C9FF280AFFF792FFE8B2FFF78FFF200A04
:10F34000FFF78CFFE0B2FFF789FF2C20FFF7BAFF31
:10F35000F8BD70B5054640F23F13EF220021084684
:10F36000FFF7D0FF002609E02846FFF78FFF0134A2
:10F37000A4B2B4F5A07FF7D30136B6B2EF2E01D810
:10F380000024F6E770BD10B514460B460246FFF7A1
:10F39000B9FF2046FFF77AFF10BD2DE9F04F85B089
:10F3A000BDF8384001948246A2EB00088B46A3EBDF
:10F3B0000109B8F1000F0DDD01230293B9F1000F2F
:10F3C00014DD01230393C8451CDD464600252F4666
:10F3D0002C461BE0B8F1000F05D0C8F100084FF033
:10F3E000FF330293EAE7CDF80880E7E7B9F1000FB1
:10F3F00005D0C9F100094FF0FF330393E3E7CDF8DF
:10F400000C90E0E74E46E1E70134A4B2731C9C4245
:10F4100013DC019A1FFA8BF11FFA8AF0FFF7B3FF92
:10F4200047444D44BE4202DABF1B029B9A44AE429F
:10F43000EADAAD1B039B9B44E6E705B0BDE8F08F1D
:10F440002DE9F04F83B001908B4690461F46DDF8C2
:10F4500030904FF0000A34E0019B03EBCA0080B209
:10F460000BF10F03C21D9BB292B25946FFF74AFF40
:10F4700099F80030203B1D4D05EB0315002612E0E6
:10F480003846FFF703FF0134E4B2072C08D82B7885
:10F49000234113F0010FF3D04046FFF7F7FEF2E7E8
:10F4A00001350136F6B20F2E01D80024EDE70AF13E
:10F4B000010A5FFA8AFA09F10109BAF11D0F12D89F
:10F4C00062B699F8003073B172B699F80020A2F1D3
:10F4D0002003DBB25E2BBFD97E2AECD90AF1010AE8
:10F4E0005FFA8AFAE7E703B0BDE8F08F100201087F
:10F4F0002DE9F84381460F4615469846BDF8206031
:10F50000FFF700FF08E03046FFF7C0FE0134A4B269
:10F51000AC42F8D90137BFB2474501D84C46F7E7AE
:10F52000BDE8F8832DE9F04F87B007460390894680
:10F53000164604921D4605939DF840A048F23044BB
:10F540000094FFF7D5FF002400944B46324649460D
:10F550003846FFF722FF00942B463A464946384684
:10F56000FFF71BFF00942B46324649463046FFF713
:10F5700014FF00942B46324629463846FFF70DFF0C
:10F580000125012D02D907B0BDE8F08FBAF1000FB7
:10F5900037D14FF0000BACB2039BE618B6B204EBC8
:10F5A00009081FFA88F8049B1F1BBFB2CDF800B0F2
:10F5B00043463A4641463046FFF7EFFE059B1C1B8B
:10F5C000A4B2CDF800B02346324641463046FFF79C
:10F5D000E4FEBAF1000F17D14FF6FF7BCDF800B073
:10F5E00023463A4641463846FFF7D7FECDF800B0ED
:10F5F00023463A4621463046FFF7CFFE0135EDB2AD
:10F60000BFE74FF6FF7BC6E74FF0000BE6E70022AF
:10F6100001E000BF013241F2707303FB00F393423B
:10F62000F7D8704710B582B000240094234644F602
:10F63000206201210846FFF79FFB224601214FF47B
:10F640008270FFF735FB2246012140F20510FFF7DB
:10F650002FFB012211464FF48370FFF729FB21464F
:10F660002046FFF747FE21464FF48270FFF7FAFA73
:10F670006420FFF7CCFF01214FF48270FFF7F2FA0C
:10F680006420FFF7C4FF3620FFF71CFE2046FFF77B
:10F69000E5FDB620FFF716FE0A20FFF7DFFDA220EA
:10F6A000FFF7DCFD3A20FFF70DFE0520FFF7D6FD42
:10F6B0001120FFF707FE4FF44870FFF7A8FF4FF641
:10F6C000FF70FFF746FE2920FFF7FCFD02B010BDDA
:10F6D0000D4B1A88012A0DD010B4531C9BB20A4C52
:10F6E0002380013A88540B2B0AD0002318465DF87A
:10F6F000044B70475528EFD01A80002318467047F6
:10F7000001212180F2E700BF3840002000B583B01E
:10F7100072B6264B00221A800220FFF783FD18B92B
:10F7200062B603B05DF804FB0DF107010220FFF79C
:10F7300031FD9DF80730002BF2D01D49FFF7C8FFBF
:10F740001A4B18801B889BB2002BE9D0174B1B88E3
:10F750009BB20C2B0BD0164B5B78522B13D0532B38
:10F7600018D0512B08D0114B00221A80D8E740F254
:10F770000910FFF7D5FAEEE70E4B0F4A1168196032
:10F7800092889A80EFE70D4B0B4A116819609288B6
:10F790009A80E8E70A4B084A1168196092889A80B3
:10F7A00040F20710FFF7BCFADDE700BFB2400020CF
:10F7B000E040002064400020E2400020B8400020EB
:10F7C000AC40002010B50C461368012B05D0022B6D
:10F7D00007D023680133236010BD5368C0B2984737
:10F7E000F7E793681870936801339360F1E730B4DA
:10F7F000441C00250570B2B1096809B1002009E078
:10F8000030234370012024E0C1F130012170013028
:10F8100001341146E9B191FBF3F203FB1211002907
:10F82000F2DB3031F2E715460A6842B93023437003
:10F8300001200EE037322270013501340A463AB118
:10F84000B2FBF3F101FB1322092AF3D83032F2E7BD
:10F85000284630BC7047F8B504460D4617461E468C
:10F8600005E0324639463020FFF7ACFF0134AC42A8
:10F87000F7DBF8BDF8B504460D4617461E4605E011
:10F88000324639462020FFF79DFF0134AC42F7DBBA
:10F89000F8BD08B501460320FFF758FC08BD00007D
:10F8A0002DE9F04F99B00446894692460021139104
:10F8B00014911591169117914C22684600F01DFC89
:10F8C000D4E9004520462946FEF740FC8046FEF775
:10F8D00001F902460B4620462946FDF7BDFF0446C6
:10F8E0000D46BAF1000F18D15CA3D3E90023FEF74F
:10F8F0006BF9FEF7B3FC06460F464FF0000B18E01D
:10F900000022534BFEF760F933465E1E002BF7D101
:10F91000FEF7A4FC06460F46EFE75346F5E7002244
:10F920004B4B20462946FEF74FF904460D460BF196
:10F93000010B0022474B20462946FEF7B7FB38B1A2
:10F940000022002320462946FEF7A6FB0028E6D029
:10F950000BF1FF35B8F1000F23D1302389F80030C7
:10F960004FF0010808F1010B2E2309F8083056EA80
:10F9700007032CD000244CE0374BA3FB0813DB0813
:10F98000184603EB83035900A8EB010318A901EB08
:10F99000820141F8143C80460132B8F1000FEBD1EE
:10F9A0000CE00022F9E7013A18AB03EB820353F8AD
:10F9B000143C303309F8083008F10108002AF2D16C
:10F9C000D0E7302209F80B209A460BF1010B0AF11F
:10F9D000FF33BAF1000FF4D1002309F80B30584679
:10F9E00019B0BDE8F08F0A22002330463946FEF7F1
:10F9F0001DFC04F1010818AB03EB840444F8602CEF
:10FA00000A22002330463946FEF710FC06460F4610
:10FA1000444656EA0703E6D107E018AB03EB84033C
:10FA2000002243F8602C013D0134002DF5D10AE09D
:10FA3000013C18AB03EB840353F8603C303309F806
:10FA40000B300BF1010B002CF2D1C5E7AFF30080B6
:10FA5000000024400000F03FCDCCCCCC00A0D885E5
:10FA6000573476432DE9F04F97B001900C469146FC
:10FA7000212200210DA800F040FB30238DF8343006
:10FA800000230C93012202929B460BE0019D2A4623
:10FA90000CA90D20FFF796FE2A460CA90A20FFF7B5
:10FAA00091FE01342078002800F0B282252841D050
:10FAB0000A28EBD0019A0CA9FFF784FEF1E746F083
:10FAC0000106144600293AD1621C6378203B102BB2
:10FAD00033D801A050F823F023FB00083BFB0008BB
:10FAE0003BFB00082FFB00083BFB00083BFB00082A
:10FAF0003BFB00083BFB00083BFB00083BFB00080E
:10FB00003BFB00081DFB00083BFB0008BFFA000898
:10FB10003BFB00083BFB000829FB000846F00206FF
:10FB2000CFE746F00406CCE746F00806C9E746F002
:10FB30001006C6E700263146C4E70121C2E70025CA
:10FB40002F4600E00F4667B9601C6378A3F13002CE
:10FB5000092AF7D805EB85056A00303BD51804461D
:10FB6000F1E7621C63782E2B36D04FF00008CDF8F9
:10FB70000880631C6278682A04D06C2A42D04C2A20
:10FB800043D023465C1C5878A0F15803202B00F288
:10FB90003882DFE813F01F013602360236023602E1
:10FBA00036023602360236023602A201EF013D006D
:10FBB00036029A00360236023D003602360236021E
:10FBC00036022F028401B10136023602F9013602F3
:10FBD000C001360236021F014FF00008404600E027
:10FBE000384668B9541C5378A3F130010929F7D875
:10FBF00008EB88084FEA480202EB01082246F0E7CA
:10FC00001446B6E74BF0010BBCE74BF0020BB9E72B
:10FC100009F10407D9F8003016A941F82C3D0A2350
:10FC200001220DA8FFF7E3FD82460DAB03EB0008B0
:10FC30000B9B002B07DB16F0020F17D000F1010A17
:10FC40004FF02B0903E000F1010A4FF02D0916F0E7
:10FC5000080F19D0B9F1000F10D1019B0CAA294649
:10FC60005046FFF7F8FDAA46B94671E116F00409BF
:10FC7000EDD000F1010A4FF02009E8E7019A0CA944
:10FC80004846FFF79FFDE8E716F0010F04D0B9F1F1
:10FC9000000F13D1B9465BE1019B0CAA29465046DF
:10FCA000FFF7E8FDB9F1000F01D1B94650E1019A23
:10FCB0000CA94846FFF786FDB94649E1019A0CA90F
:10FCC0004846FFF77FFDB94642E109F10C07D9E943
:10FCD000019ACDE9089A0022002348465146FEF7D2
:10FCE000E5F940B916F0020F2BD116F004090DD03A
:10FCF0004FF020090AE0CDF810900AF10043059377
:10FD00009DED047B8DED087B4FF02D09029BDBB947
:10FD1000BBF1000F1FD106220DA908A8FFF7C0FDF7
:10FD2000804616F0080F23D0B9F1000F1AD1019BBD
:10FD30000CAA29464046FFF78EFDA8460DF134096E
:10FD400037E04FF02B09E1E742460DA908A8FFF77D
:10FD5000A7FD8046E5E706220DA908A8FFF7A0FD4C
:10FD60008046DEE7019A0CA94846FFF72BFDDEE747
:10FD700016F0010F08D0B9F1000FDFD0019A0CA9DD
:10FD80004846FFF71FFDD9E7019B0CAA29464046CC
:10FD9000FFF770FDB9F1000FD0D0019A0CA94846C9
:10FDA000FFF710FDCAE709F10109019A0CA9FFF755
:10FDB00009FD99F800000028F5D116F0010F01D1D6
:10FDC000B9466EE6019B0CAA29464046FFF752FD54
:10FDD000B94666E609F104030393D9F8003016A981
:10FDE00041F83C3D102300220DA8FFF700FD82469C
:10FDF0000DAB03EB000816F0080921D016F010092E
:10FE000010D1019B0CAA29465046FFF724FDAA46B3
:10FE100016F0100F00F0AB80B9F1000F2FD0DDF815
:10FE20000C9095E0DDF804904A460CA93020FFF7CD
:10FE3000C9FC4A460CA97820FFF7C4FCB946E0E7A4
:10FE400016F0010FE4D116F0100901D000F1020AFA
:10FE5000019B0CAA29465046FFF70CFDB9F1000F93
:10FE6000D6D0DDF804904A460CA93020FFF7AAFC52
:10FE70004A460CA97820FFF7A5FCB946C8E7019FC0
:10FE80003A460CA93020FFF79DFC3A460CA9782091
:10FE9000FFF798FC0AF1020ADDF80C9058E009F12E
:10FEA0000407D9F8003016A941F83C3D0823002288
:10FEB0000DA8FFF79CFC8246B9460DAB03EB0A0880
:10FEC00016F0080F36D116F0010F41D1019B0CAA94
:10FED00029465046FFF7CEFC3AE009F10407D9F86D
:10FEE000003016A941F83C3D022300220DA8FFF77F
:10FEF0007EFC8246B946E0E709F10407D9F80030F4
:10FF000016A941F83C3D102300220DA8FFF76FFC15
:10FF10008246B946D1E709F10407D9F8003016A99D
:10FF200041F83C3D0A2300220DA8FFF760FC824601
:10FF3000B946C2E7019B0CAA29465046FFF78BFC45
:10FF4000AA4605E008F1FF38019A0CA9FFF73AFC30
:10FF500098F800000028F5D116F0010F3FF4A1AD8C
:10FF6000019B0CAA29465046FFF784FC99E5DDF871
:10FF70000C90EDE709F10405019A0CA999F800002D
:10FF8000FFF720FCA9468CE509F1040AD9F80070B6
:10FF9000002F3BD03846FDF753FC814616F0010692
:10FFA0000FD0B8F1000F17D03878C0B1B8F1000FFA
:10FFB000FADD08F1FF380137019A0CA9FFF702FCBE
:10FFC000F2E7019B0CAA2946FFF754FCE9E7013749
:10FFD000019A0CA9FFF7F6FB38780028F7D10EB983
:10FFE000D1465EE5019B0CAA29464846FFF742FC34
:10FFF000D14656E5D9F800300C9A1A6009F1040987
:020000040801F1
:100000004FE5019A0CA9FFF7DDFB4AE5D14648E52B
:100010000C9817B0BDE8F08F0FB400B585B0012380
:100020000193064B029306AA52F8041B01A8FFF79E
:1000300019FD05B05DF804EB04B0704793F80008B3
:10004000DFF838D0002103E00D4B5B5843500431FA
:100050000C480D4B42189A42F6D30C4A02E000239A
:1000600042F8043B0A4B9A42F9D3FEF7CFFAFEF767
:100070006DFF00F013F8FEF7A1FBFEE7FFFF002085
:1000800028080108004000203C400020404000209B
:10009000E448002000B500BF00BD000070B50D4E63
:1000A0000D4CA41BA4100025A54209D10B4E0C4CED
:1000B00000F02CF8A41BA4100025A54205D170BDAA
:1000C00056F8253098470135EEE756F82530984721
:1000D0000135F2E718080108180801081808010896
:1000E0001C08010810B5431E0A44914200D110BDFE
:1000F00011F8014B03F8014FF7E70244034693421E
:1001000000D1704703F8011BF9E70000F8B500BF04
:10011000F8BC08BC9E467047F8B500BFF8BC08BCE8
:080120009E467047000000003C
:10012800BDF8C8EB6D61696EBAAFCAFD000000008A
:1001380074657374310000005820616E676C653A0D
:10014800000000005920616E676C653A00000000ED
:100158005A20616E676C653A000000004C4344C346
:10016800E6B0E5B3F5CABCBBAFBBAFCDEAB1CF00D3
:10017800B4AEBFDAD6D0B6CFBFAAC6F4000000002E
:10018800D7BCB1B8BDF8C8EBD1ADBBB70000000013
:1001980078D6E1BDC7B6C8CEAAA3BA252E33662C39
:1001A80079D6E1BDC7B6C8CEAA252E3366A3AC5A08
:1001B800D6E1BDC7B6C8CEAA252E33660A00000010
:1001C8003031323334353637383941424344454685
:1001D8003230323030373136000000002020A1BEE6
:1001E80055736572CCE1CABEA1BFA3BABDABBDF859
:1001F800C8EB55736572B5C46D61696E2829D6B4AC
:10020800D0D02E2E2E0D0A000000000000000000A5
:1002180000000000000000000000183C3C3C1818DA
:100228001800181800000000006666662400000028
:10023800000000000000000000000036367F36365F
:10024800367F36360000000018183E6343033E60D0
:1002580061633E1818000000000000004363301876
:100268000C0663610000000000001C36361C6E3B63
:100278003333336E00000000000C0C0C0600000045
:100288000000000000000000000030180C0C0C0CEE
:100298000C0C18300000000000000C183030303012
:1002A8003030180C000000000000000000663CFF21
:1002B8003C66000000000000000000000018187EE6
:1002C80018180000000000000000000000000000F6
:1002D800001818180C000000000000000000007F43
:1002E8000000000000000000000000000000000006
:1002F80000001818000000000000000040603018DE
:100308000C0603010000000000003E6363736B6B82
:100318006763633E000000000000181C1E181818D0
:100328001818187E0000000000003E636030180CAA
:100338000603637F0000000000003E6360603C60CD
:100348006060633E00000000000030383C36337FB8
:10035800303030780000000000007F0303033F7056
:100368006060633E0000000000001C0603033F635A
:100378006363633E0000000000007F636060301824
:100388000C0C0C0C0000000000003E6363633E632D
:100398006363633E0000000000003E6363637E60A9
:1003A8006060301E00000000000000001818000007
:1003B80000181800000000000000000018180000D5
:1003C8000018180C000000000000006030180C062F
:1003D8000C183060000000000000000000007F00E2
:1003E800007F000000000000000000060C183060CC
:1003F80030180C060000000000003E636330181837
:1004080018001818000000000000003E63637B7BA2
:100418007B3B033E000000000000081C3663637F3E
:10042800636363630000000000003F6666663E6623
:100438006666663F0000000000003C664303030355
:100448000343663C0000000000001F3666666666CF
:100458006666361F0000000000007F6646161E16FE
:100468000646667F0000000000007F6646161E16DE
:100478000606060F0000000000003C664303037BED
:100488006363665C000000000000636363637F636E
:10049800636363630000000000003C181818181814
:1004A8001818183C00000000000078303030303058
:1004B8003333331E000000000000676636361E1E08
:1004C800366666670000000000000F06060606068E
:1004D8000646667F00000000000063777F7F6B633D
:1004E8006363636300000000000063676F7F7B73D2
:1004F800636363630000000000001C36636363638A
:100508006363361C0000000000003F6666663E0616
:100518000606060F0000000000003E636363636385
:10052800636B7B3E3070000000003F6666663E36B7
:10053800666666670000000000003E6363061C30C4
:100548006063633E0000000000007E7E5A181818A1
:100558001818183C000000000000636363636363BD
:100568006363633E000000000000636363636363CA
:1005780063361C0800000000000063636363636B5C
:100588006B7F3636000000000000636336361C1CA3
:1005980036366363000000000000666666663C1835
:1005A8001818183C0000000000007F636130180C28
:1005B8000643637F0000000000003C0C0C0C0C0C90
:1005C8000C0C0C3C000000000000000103070E1C8E
:1005D800387060400000000000003C30303030309F
:1005E8003030303C00000000081C3663000000007A
:1005F80000000000000000000000000000000000F3
:100608000000000000FF00000C0C180000000000B3
:10061800000000000000000000000000001E303E46
:100628003333336E0000000000000706061E3666EE
:100638006666663B0000000000000000003E6303A1
:100648000303633E0000000000003830303C3633BE
:100658003333336E0000000000000000003E637F6B
:100668000303633E0000000000001C3626060F0648
:100678000606060F0000000000000000006E33337D
:100688003333333E30331E000000070606366E66ED
:10069800666666670000000000001818001C18183D
:1006A8001818183C000000000000606000706060CE
:1006B8006060606066663C00000007060666361EDD
:1006C8001E3666670000000000001C18181818186D
:1006D8001818183C000000000000000000377F6B6D
:1006E8006B6B6B6B0000000000000000003B66664F
:1006F800666666660000000000000000003E636356
:100708006363633E0000000000000000003B666673
:100718006666663E06060F0000000000006E333372
:100728003333333E3030780000000000003B6E4623
:100738000606060F0000000000000000003E6306E9
:100748001C30633E000000000000080C0C3F0C0C3D
:100758000C0C6C380000000000000000003333333C
:100768003333336E00000000000000000066666648
:1007780066663C1800000000000000000063636328
:100788006B6B7F3600000000000000000063361C21
:100798001C1C366300000000000000000063636357
:1007A8006363637E60301F0000000000007F331821
:1007B8000C06637F000000000000701818180E185F
:1007C80018181870000000000000181818180018F1
:1007D800181818180000000000000E1818187018D3
:1007E8001818180E0000000000006E3B0000000002
:1007F800000000000000000000000000081C366334
:0808080063637F0000000000A3
:0808100090DAFF7F01000000F7
:0808180025D8000800000000D3
:0808200001D8000800000000EF
:10082800006CDC0200000048000400480008004892
:10083800000C004800100048001C0048003001402F
:1008480000380040003C00400038014000440040AF
:0C08580000480040252627000100000099
:040000050800D80017
:00000001FF
